:020000040800F2
:10000000FFFF012069600108153201082332010851
:100010002B320108333201083B3201080000000096
:100020000000000000000000000000004332010852
:1000300051320108000000005F3201086D320108F2
:10004000B9600108B9600108B9600108B960010828
:10005000B9600108B960010879320108B960010886
:10006000B9600108B9600108B9600108B960010808
:10007000B9600108B9600108B9600108B9600108F8
:10008000B9600108B9600108B9600108000000000A
:10009000000000000000000000000000B96001083E
:1000A000B9600108B9600108B9600108B9600108C8
:1000B000B9600108B9600108B9600108B9600108B8
:1000C000B9600108B9600108B9600108B9600108A8
:1000D000B9600108B9600108B960010800000000BA
:1000E0008D320108B9600108B96001080000000004
:1000F000000000000000000000000000B9600108DE
:1001000000000000B9600108B9600108B960010889
:1001100000000000000000000000000000000000DF
:10012000B9600108B9600108B9600108B960010847
:10013000B96001080000000000000000000000009D
:10014000000000000000000000000000B96001088D
:10015000B9600108B9600108B9600108B960010817
:10016000B9600108B960010800000000000000004B
:10017000000000000000000000000000000000007F
:1001800000000000B960010800000000000000004D
:08019000B9600108B960010823
:1001A00010B5054C237833B9044B13B10448AFF3B1
:1001B00000800123237010BD9C000020000000007F
:1001C0000C6A010808B5034B1BB103490348AFF3A0
:1001D000008008BD00000000A00000200C6A01089B
:1001E00080B483B000AF78607B687A681A607B68FF
:1001F0007A685A6000BF0C37BD465DF8047B7047D3
:1002000080B487B000AF7860EFF31083FB60FB68C9
:100210003B6172B600BF7B681B687A689A4202D164
:100220000123FB7501E00023FB753B69BB60BB68E4
:1002300083F3108800BFFB7D18461C37BD465DF870
:10024000047B704780B487B000AF78603960EFF30B
:100250001083FB60FB687B6172B600BF7B681A6825
:100260003B681A603B687A685A607B683A681A6033
:100270003B681B683A685A607B693B613B6983F362
:10028000108800BF00BF1C37BD465DF8047B704777
:1002900080B487B000AF78603960EFF31083FB6003
:1002A000FB687B6172B600BF3B687A681A607B6846
:1002B0005A683B685A607B683A685A603B685B687A
:1002C0003A681A607B693B613B6983F3108800BF21
:1002D00000BF1C37BD465DF8047B704780B487B013
:1002E00000AF7860EFF31083FB60FB687B6172B650
:1002F00000BF7B685B687A6812681A607B681B685D
:100300007A6852685A607B693B613B6983F3108865
:1003100000BF00BF1C37BD465DF8047B704780B549
:1003200086B000AF78603960EFF31083FB60FB6844
:100330007B6172B600BF7B681A683B681A607B6895
:100340001B681846FFF7CAFF3B681B6800221A604B
:100350003B681B6800225A607B693B613B6983F301
:10036000108800BF00BF1837BD4680BD80B586B07D
:1003700000AF78603960EFF31083FB60FB687B614E
:1003800072B600BF7B685A683B681A607B685B681E
:100390001846FFF7A3FF3B681B6800221A603B6802
:1003A0001B6800225A607B693B613B6983F31088BC
:1003B00000BF00BF1837BD4680BD80B487B000AF16
:1003C00078603960EFF31083FB60FB687B6172B685
:1003D00000BF3B681A687B681A607B683A685A609D
:1003E0003B687A681A607B681B687A685A607B6928
:1003F0003B613B6983F3108800BF00BF1C37BD46DB
:100400005DF8047B704780B487B000AF78603960D6
:10041000EFF31083FB60FB687B6172B600BF7B6803
:100420003A681A603B685A687B685A603B687A6829
:100430005A607B685B687A681A607B693B613B69DC
:1004400083F3108800BF00BF1C37BD465DF8047BF6
:10045000704780B489B000AF78600023FB61EFF390
:1004600010833B613B697B6172B600BF7B681B6890
:10047000BB6105E0FB690133FB61BB691B68BB61C4
:10048000BA697B689A42F5D17B69FB60FB6883F3AC
:10049000108800BFFB6918462437BD465DF8047B11
:1004A000704780B487B000AF78603960EFF3108395
:1004B000FB60FB687B6172B600BF7B681A683B68B3
:1004C0001A607B693B613B6983F3108800BF00BF02
:1004D0001C37BD465DF8047B704780B487B000AF21
:1004E00078603960EFF31083FB60FB687B6172B664
:1004F00000BF7B685A683B681A607B693B613B6957
:1005000083F3108800BF00BF1C37BD465DF8047B35
:10051000704780B588B000AF07F1080318220021AA
:10052000184615F062FB03233B8103237B81FB1DEF
:10053000BB610123FB6107F108030021184601F0AC
:1005400011F80346002B01DAFF2300E0FB7918467F
:100550002037BD4680BD80B58AB000AF03460A464D
:10056000FB8013467B71FB88BB817B79BB7307F1F2
:10057000100318220021184615F037FB01233B8297
:1005800006237B8207F10C03BB610323FB610F236E
:100590007B6107F10B033B6201237B6207F11003D0
:1005A0000021184600F0DEFF0346002B01DAFF238E
:1005B00000E0FB7A18462837BD4680BD80B58EB076
:1005C00000AFF860B9607A603B6007F1140309225C
:1005D0000021184615F009FB07F12003182200211D
:1005E000184615F002FB04233B8401237B8400237F
:1005F000BB620023FB6207F114033B6309237B63A7
:1006000007F120030021184600F0ACFF0346002B41
:1006100001DAFF2318E03B7D002B01D03B7D13E086
:100620007A7DFB681A70FA8ABB681A803A7E7B680A
:100630001A70B7F819309AB23B681A80B7F81B30B5
:100640009AB23B6C1A80002318463837BD4680BDED
:1006500080B58AB000AF7860396007F10C030422DE
:100660000021184615F0C1FA07F1100318220021E5
:10067000184615F0BAFA08233B8202237B82002336
:10068000BB610023FB6107F10C033B6204237B6227
:1006900007F110030021184600F064FF0346002B09
:1006A00001DAFF230DE03B7B002B01D03B7B08E010
:1006B000B7F80D309AB27B681A80FA7B3B681A70E3
:1006C000002318462837BD4680BD90B58FB000AFD7
:1006D0000446084611461A462346FB800346BB8063
:1006E0000B46FB701346BB7007F110030F2200216D
:1006F000184615F07AFAFB883B82BB887B82FB7830
:100700003B75BB787B7597F84830BB75FB6C002B4D
:1007100006D0FA6C07F117031168196092889A8065
:1007200097F850307B7797F85430BB7707F1200368
:1007300018220021184615F058FA08233B84062396
:100740007B8407F11003BB620F23FB6207F10F03E9
:100750003B6301237B6307F120030021184600F06F
:1007600001FF0346002B01DAFF2300E0FB7B184664
:100770003C37BD4690BD80B592B000AF03463960AE
:10078000FB7107F1100320220021184615F02DFA05
:10079000FB793B74FB791F2B28BF1F23DBB21A4662
:1007A00007F1100301333968184615F099FD07F178
:1007B000300318220021184615F017FA08233B864B
:1007C00008237B8607F11003BB632023FB6307F13B
:1007D0000F033B6401237B6407F1300300211846BB
:1007E00000F0C0FE0346002B01DAFF2300E0FB7B94
:1007F00018464837BD4680BD80B58AB000AF034675
:10080000FB7107F10C0301220021184615F0EDF9E8
:10081000FB79002B14BF01230023DBB23B7307F1EC
:10082000100318220021184615F0DFF908233B8237
:100830000A237B8207F10C03BB610123FB6107F1F3
:100840000B033B6201237B6207F110030021184672
:1008500000F088FE0346002B01DAFF2300E0FB7A5C
:1008600018462837BD4680BD90B58DB000AF044610
:10087000084611461A462346FB710346BB800B46C9
:100880007B801346BB7107F1100307220021184635
:1008900015F0ABF9FB793B74BB88A7F811307B8866
:1008A000A7F81330BB797B7597F84030BB7507F11B
:1008B000180318220021184615F097F908233B83E6
:1008C0000B237B8307F110033B6207237B6207F155
:1008D0000F03BB620123FB6207F1180300211846D6
:1008E00000F040FE0346002B01DAFF2300E0FB7B13
:1008F00018463437BD4690BD80B58AB000AF034678
:100900000A46FB711346BB7107F10C03022200215A
:10091000184615F06AF9FB79002B14BF0123002358
:10092000DBB23B73BB797B7307F110031822002104
:10093000184615F05AF908233B820C237B8207F1F5
:100940000C03BB610223FB6107F10B033B62012334
:100950007B6207F110030021184600F003FE0346F6
:10096000002B01DAFF2300E0FB7A18462837BD464A
:1009700080BD80B58CB000AF786007F10C03092210
:100980000021184615F031F907F11803182200214B
:10099000184615F02AF908233B8318237B8300238C
:1009A0003B6200237B6207F10C03BB620923FB62FD
:1009B00007F118030021184600F0D4FD0346002B70
:1009C00001DAFF230DE03B7B002B01D03B7B08E0ED
:1009D0007B681A4607F10D0319685B681160536064
:1009E000002318463037BD4680BD80B592B000AFB9
:1009F00003463960FB7107F11003202200211846DD
:100A000015F0F3F8FB793B74FB791F2B28BF1F23EC
:100A1000DBB21A4607F1100301333968184615F0A6
:100A20005FFC07F1300318220021184615F0DDF8AD
:100A300008233B8609237B8607F11003BB63202331
:100A4000FB6307F10F033B6401237B6407F1300371
:100A50000021184600F086FD0346002B01DAFF2333
:100A600000E0FB7B18464837BD4680BD80B58AB0A4
:100A700000AF786007F10C0302220021184615F040
:100A8000B4F807F1100318220021184615F0ADF84C
:100A900008233B8207237B820023BB610023FB6189
:100AA00007F10C033B6209237B6207F1100300216D
:100AB000184600F057FD0346002B01DAFF2309E03A
:100AC0003B7B002B01D03B7B04E097F90D207B683A
:100AD0001A70002318462837BD4680BD80B58CB0FB
:100AE00000AF786007F1100306220021184615F0C8
:100AF0007CF87A6807F110031068186092889A8071
:100B000007F1180318220021184615F06EF8082383
:100B10003B8305237B8307F110033B6206237B6243
:100B200007F10F03BB620123FB6207F118030021E9
:100B3000184600F017FD0346002B01DAFF2300E002
:100B4000FB7B18463037BD4680BD80B58AB000AF0C
:100B5000786007F1080307220021184615F045F8D0
:100B600007F1100318220021184615F03EF804235F
:100B70003B8209237B820023BB610023FB6107F1D9
:100B800008033B6207237B6207F11003002118462C
:100B900000F0E8FC0346002B01DAFF230DE03B7A6E
:100BA000002B01D03B7A08E07B681A4607F1090365
:100BB000196811609B889380002318462837BD462A
:100BC00080BD90B591B000AF0446084611461A4664
:100BD0002346FB800346BB800B46FB701346BB706D
:100BE00007F10C0319220021184614F0FEFFFB88C0
:100BF000BB81BB88FB81FB783B74BB787B743A6D0F
:100C000007F112031168196092889A8097F854309E
:100C10003B76B7F85830A7F81930B7F85C30A7F82A
:100C20001B30B7F86030A7F81D30B7F86430A7F86C
:100C30001F30B7F86830A7F82130B7F86C30A7F844
:100C4000233007F1280318220021184614F0CDFFA5
:100C500008233B850D237B8507F10C033B63192398
:100C60007B630F23FB6207F10B03BB630123FB6371
:100C700007F128030021184600F074FC0346002BFE
:100C800001DAFF2300E0FB7A18464437BD4690BDE9
:100C900080B588B000AF07F108031822002118467C
:100CA00014F0A3FF08233B810E237B81FB1DBB6156
:100CB0000123FB6107F108030021184600F052FCF4
:100CC0000346002B01DAFF2300E0FB7918462037AA
:100CD000BD4680BD90B599B000AFF860B9607A604C
:100CE00007F1140311220021184614F07EFFFB685F
:100CF00007F12804186859689A68DB680FC4BB6854
:100D000007F13804186859689A68DB680FC407F15E
:100D1000480318220021184614F067FF0823A7F89B
:100D200048301723A7F84A3007F128033B652023F2
:100D30007B6507F11403BB651123FB6507F14803CD
:100D40000021184600F00EFC0346002B01DAFF23B9
:100D500011E03B7D002B01D03B7D0CE07B681A4607
:100D600007F115031C6858689968DB6814605060C7
:100D70009160D360002318466437BD4690BD90B59E
:100D80008FB000AF786007F10803032200211846F6
:100D900014F02BFF0123BB817A6807F10E0314685E
:100DA00050689168D2681C6058609960DA6007F1F9
:100DB000200318220021184614F017FF08233B8453
:100DC0001A237B8407F10C03BB621223FB6207F139
:100DD00008033B6303237B6307F1200300211846CC
:100DE00000F0C0FB0346002B01DAFF2300E03B7A52
:100DF00018463C37BD4690BD80B588B000AF3B4635
:100E000003220021184614F0F0FE0123BB8007F1F5
:100E1000080318220021184614F0E7FE08233B813E
:100E20001B237B813B1D3B6102237B613B46BB61F6
:100E30000323FB6107F108030021184600F092FB31
:100E40000346002B01DAFF2300E03B7818462037E9
:100E5000BD4680BD80B58AB000AF786007F10C0355
:100E600002220021184614F0C0FE07F110031822D8
:100E70000021184614F0B9FE08233B820F237B8221
:100E800007F10C033B6202237B6207F11003002190
:100E9000184600F067FB0346002B01DAFF2308E049
:100EA0003B7B002B01D03B7B03E07A7B7B681A7095
:100EB000002318462837BD4680BD80B588B000AFF6
:100EC00007F1080318220021184614F08EFE0823AB
:100ED0003B8110237B81FB1DBB610123FB6107F17B
:100EE00008030021184600F03DFB0346002B01DA01
:100EF000FF2300E0FB7918462037BD4680BD80B552
:100F00008CB000AF03463960FB71FB793B743A68E3
:100F100007F111031168196092889A8007F118038C
:100F200018220021184614F060FE08233B83112389
:100F30007B8307F110033B6207237B6207F10F03FA
:100F4000BB620123FB6207F118030021184600F081
:100F500009FB0346002B01DAFF2300E0FB7B184668
:100F60003037BD4680BD80B58CB000AF03463960D8
:100F7000FB71FB793B743A6807F111031168196042
:100F800092889A8007F1180318220021184614F05D
:100F90002CFE08233B8312237B8307F110033B6263
:100FA00007237B6207F10F03BB620123FB6207F19A
:100FB00018030021184600F0D5FA0346002B01DA89
:100FC000FF2300E0FB7B18463037BD4680BD80B56F
:100FD0008CB000AFF8600B467A60FB7207F110032B
:100FE00004220021184614F000FEFB681B88BB8217
:100FF000FB7ABB7507F1180318220021184614F07C
:10100000F4FD03233B832D237B8307F114033B6211
:1010100003237B6207F11003BB620423FB6207F129
:1010200018030021184600F09DFA0346002B01DA50
:10103000FF230EE03B7C002B01D03B7C09E0B7F89E
:1010400011309AB2FB681A8097F913207B681A70E6
:10105000002318463037BD4680BD80B58AB000AF4A
:101060007860396007F1080304220021184614F063
:10107000BCFD7B681B88BB8107F11003182200218F
:10108000184614F0B2FD05233B8205237B8207F14D
:101090000C03BB610223FB6107F108033B620423DD
:1010A0007B6207F110030021184600F05BFA03464B
:1010B000002B01DAFF230EE03B7A002B01D03B7AB4
:1010C00009E0B7F809309AB27B681A8097F90B20CB
:1010D0003B681A70002318462837BD4680BD80B58E
:1010E0008CB000AF786007F10C030922002118468C
:1010F00014F07BFD07F1180318220021184614F0A4
:1011000074FD08233B8303237B8307F10C03BB623D
:101110000923FB6207F118030021184600F022FAA8
:101120000346002B01DAFF230DE03B7B002B01D0AF
:101130003B7B08E07B681A4607F10D0319685B6882
:1011400011605360002318463037BD4680BD80B51E
:101150008CB000AF03463960FB8007F10C03082216
:101160000021184614F041FDFB88BB8207F11803EB
:1011700018220021184614F038FD08233B8315235C
:101180007B8307F114033B6202237B6207F10C03AC
:10119000BB620823FB6207F118030021184600F028
:1011A000E1F90346002B01DAFF230DE03B7B002B26
:1011B00001D03B7B08E03B681A4607F10F03196832
:1011C00011601B791371002318463037BD4680BD6E
:1011D00080B58CB000AF786007F10C0309220021C4
:1011E000184614F002FD07F11803182200211846D2
:1011F00014F0FBFC08233B831C237B8307F10C03C7
:10120000BB620923FB6207F118030021184600F0B6
:10121000A9F90346002B01DAFF230DE03B7B002BED
:1012200001D03B7B08E07B681A4607F10D03196883
:101230005B6811605360002318463037BD4680BD9F
:1012400080B58AB000AF0346FB71FB793B7307F1B1
:10125000100318220021184614F0C7FC08233B8213
:101260001D237B8207F10C03BB610123FB6107F1A6
:101270000B033B6201237B6207F110030021184638
:1012800000F070F90346002B01DAFF2300E0FB7A3F
:1012900018462837BD4680BD80B58AB000AF0346EA
:1012A000FB710B46BB7113467B71FB793B73BB79BA
:1012B0007B737B79BB7307F110031822002118465A
:1012C00014F093FC08233B821E237B8207F10C035E
:1012D000BB610323FB6107F10B033B6201237B62CC
:1012E00007F110030021184600F03CF90346002BDB
:1012F00001DAFF2300E0FB7A18462837BD4680BD9F
:1013000080B58AB000AF786007F10C03032200219A
:10131000184614F06AFC07F1100318220021184641
:1013200014F063FC08233B821F237B8207F10C032C
:101330003B6203237B6207F110030021184600F093
:1013400011F90346002B01DAFF230AE03B7B002B57
:1013500001D03B7B05E0B7F80D309AB27B681A806C
:10136000002318462837BD4680BD000080B485B0F4
:1013700000AF78607B680833FB60FB681B78042B48
:1013800001D001230CE0FB6802331B781A467B680E
:1013900093F88830033B9A4201D0022300E00023F7
:1013A00018461437BD465DF8047B704780B5A6B07B
:1013B00000AF7B600346FB810B46BB811346FB728B
:1013C000B7F90C30C3F309031AB2FB899B021BB2B5
:1013D00013431BB29BB2BB82FB7ABB7501233B76E6
:1013E00007F1180301331A4607F1140319889B7893
:1013F0001180937007F118030433FA7A796818465C
:1014000014F06EFF084B1B69002B09D0064B1B69BB
:10141000FA7A92B2043291B207F118021046984754
:1014200000BF9837BD4680BD7403002080B584B0EE
:1014300000AF786039600AE007F10C03194638689C
:10144000FEF794FFFB6819467868FEF7FBFE3868E4
:10145000FEF7D6FE0346002BEED000BF00BF1037CC
:10146000BD4680BD80B582B000AF09E03B1D194686
:101470000948FEF754FF7B6819460848FEF708FF45
:101480000648FEF7E6FF0346012BEFDD00BF00BF75
:101490000837BD4680BD00BF4C0600204406002032
:1014A00080B584B000AF786039607B68002B02D0D3
:1014B000184A7B68D36110F059FF1748FEF790FE79
:1014C0001648FEF78DFE0023FB730CE0FB7B8C229D
:1014D00002FB03F3124A134419460F48FEF7D8FEE5
:1014E000FB7B0133FB73FB7B042BEFD9094B1B68A0
:1014F000002B03D0074B1B6800209847054B9B68C7
:10150000002B02D0034B9B68984700BF1037BD46A5
:1015100080BD00BF74030020440600204C0600205C
:10152000B800002080B483B000AF78607B681B688F
:101530000B4A13607B68DB68094AD3607B681B69D0
:10154000074A13617B689B69054A93617B689B68C6
:10155000034A936000BF0C37BD465DF8047B7047BB
:101560007403002080B58EB000AF78600B46FB702E
:101570007B685B881BB2C3F309031AB27B681B88C4
:101580009B021BB213431BB2FB8600233B6107F196
:1015900008031846FEF724FEFFF764FF7B681888EF
:1015A0007B6859887B68DB68DAB27B689B68FFF7E9
:1015B000FDFEFB78002B01D00023E2E004F024F8CC
:1015C000386304F021F802463B6BD31AB3F57A7FF7
:1015D00000F2B3806D48FEF713FE0346002B00D0E7
:1015E000EFE700BF07F1100319466848FEF797FEC2
:1015F0003B690833FB62FB6A1B78042B7FD1FB6AD3
:101600000133BB623B69083303337B623B6993F868
:101610008830033B3B62BB6A1B783E2B4CD03E2B91
:1016200068DC102B00F08B80102B63DC0E2B23D09A
:101630000F2B5FD17B6ABB61BB695B889BB2FA8E63
:101640009A427ED17B685B680F2B04D0BB691B7804
:10165000002B51D078E07B685A693B6A9A4228BFD8
:101660001A467B685A617B6818697B685B691A4611
:10167000796A14F035FE78E07B6A7B617B69B3F8A8
:1016800001309BB2FA8E9A425DD17B6A03337B6252
:101690003B6A033B3B627B685A693B6A9A4228BFBC
:1016A0001A467B685A617B6818697B685B691A46D1
:1016B000796A14F015FE58E07B6AFB61FB691B78C0
:1016C0001A467B685B689A4218D13B6A013B3B62D1
:1016D0007B685A693B6A9A4228BF1A467B685A61FE
:1016E0007B681869FB69591C7B685B691A4614F0B2
:1016F000F7FD3AE000BF02E000BF00E000BF244871
:10170000FEF77EFD0346002B0DD02048FEF778FD46
:101710000346002B07D03B6919461D48FEF7B8FD6C
:1017200000233B6108E03A6907F1080311461846B7
:10173000FEF7AEFD00233B6140E700BF04E000BFC1
:1017400002E000BF00E000BF3B69002B04D03B6912
:1017500019460F48FEF776FD07F1080319460B48B6
:10176000FFF764FE4FF0FF330BE03B691946084872
:10177000FEF768FD07F1080319460448FFF756FE17
:10178000002318463837BD4680BD00BF4C060020F8
:101790004406002080B582B000AF00237B6013E0D8
:1017A0003B1D19460E48FEF7BAFD0E4BDB69002BB8
:1017B00005D00C4BDB697A680832104698477B6885
:1017C00019460948FEF764FD0548FEF719FD034672
:1017D000002BE5D000BF00BF0837BD4680BD00BF6D
:1017E0004C060020740300204406002080B586B01B
:1017F00000AF78600023FB6000237B611F48FEF789
:10180000FFFC0346002B32D107F10C0319461B489D
:10181000FEF785FD1A4BDB68002B2AD0184BDB68DE
:10182000FA6808328021104698470346FB74FB7C17
:10183000002B16D0FB68FA7C83F88820FB681846DA
:10184000FFF794FD0346002B05D1FB6819460D48B0
:10185000FEF71EFD0DE0FB6819460848FEF7F2FC96
:1018600007E0FB6819460548FEF7ECFC01E00123A0
:101870007B617B6918461837BD4680BD4406002051
:10188000740300204C06002080B58CB000AF3B6094
:101890000346FB710B46BB7113467B71FB793B75AD
:1018A000BB797B757B79BB7507F10C03072200219F
:1018B000184614F09AF907F1180318220021184667
:1018C00014F093F93F233B838A237B8307F11403AE
:1018D0003B6203237B6207F10C03BB620723FB62BD
:1018E00007F1180300211846FFF73CFE0346002BC2
:1018F00001DAFF2314E03B7B002B01D03B7B0FE0A0
:10190000B7F80D309AB23B681A80B7F80F309AB228
:10191000BB6B1A80B7F811309AB2FB6B1A800023A8
:1019200018463037BD4680BD80B58EB000AFB96077
:101930007A603B600346FB73FB7B3B7707F1140344
:1019400007220021184614F050F907F1200318224D
:101950000021184614F049F93F233B848A237B84F5
:1019600007F11C03BB620123FB6207F114033B6315
:1019700007237B6307F1200300211846FFF7F2FDE0
:101980000346002B01DAFF2314E03B7D002B01D03E
:101990003B7D0FE0B7F815309AB2BB681A80B7F8F4
:1019A00017309AB27B681A80B7F819309AB23B6840
:1019B0001A80002318463837BD4680BD80B588B0F0
:1019C00000AF07F1080318220021184614F00DF9A2
:1019D0003F233B8181237B81FB1DBB610123FB6195
:1019E00007F1080300211846FFF7BCFD0346002B52
:1019F00001DAFF2300E0FB7918462037BD4680BDA1
:101A000090B595B000AF0446084611461A462346E5
:101A1000FB710346BB800B467B801346BB710023E2
:101A200087F84F3097F8642097F86C3013440E33E2
:101A3000282B01D94223BDE097F84F3050333B4467
:101A4000FA7903F8482C97F84F30013387F84F3074
:101A5000BB88BB8097F84F3007F108021344BA885F
:101A60001A8097F84F30023387F84F307B887B809D
:101A700097F84F3007F1080213447A881A8097F8D4
:101A80004F30023387F84F3097F84F3050333B4494
:101A9000BA7903F8482C97F84F30013387F84F3064
:101AA00097F84F3050333B4497F8602003F8482CA8
:101AB00097F84F30013387F84F3097F84F30503355
:101AC0003B4497F8642003F8482C97F84F300133D3
:101AD00087F84F3097F84F3007F10802134497F812
:101AE0006420B96E184614F0FBFB97F84F2097F866
:101AF0006430134487F84F3097F84F3050333B44ED
:101B000097F86C2003F8482C97F84F30013387F88A
:101B10004F3097F84F3007F10802134497F86C20C4
:101B2000396F184614F0DCFB97F84F2097F86C30AB
:101B3000134487F84F3097F84F3007F108021344E9
:101B4000B7F874201A8097F84F30023387F84F3077
:101B500097F84F3007F108021344B7F878201A803D
:101B600097F84F30023387F84F3007F134031822CB
:101B70000021184614F039F83F23BB868223FB86E8
:101B800007F10803FB6397F84F303B640F23BB63F7
:101B900007F133037B640123BB6407F134030021A5
:101BA0001846FFF7DFFC0346002B01DAFF2301E0B4
:101BB00097F8333018465437BD4690BD90B595B070
:101BC00000AF0446084611461A462346FB710346F9
:101BD000BB800B467B801346BB71002387F84F30D8
:101BE00097F8642097F86C3013440E33282B01D9F2
:101BF0004223C9E097F84F3050333B44FA7903F859
:101C0000482C97F84F30013387F84F30BB88BB80A2
:101C100097F84F3007F108021344BA881A8097F8F2
:101C20004F30023387F84F307B887B8097F84F30F6
:101C300007F1080213447A881A8097F84F3002336C
:101C400087F84F3097F84F3050333B44BA7903F858
:101C5000482C97F84F30013387F84F3097F84F30C2
:101C600050333B4497F8602003F8482C97F84F30E6
:101C7000013387F84F3097F84F3050333B4497F893
:101C8000642003F8482C97F84F30013387F84F3021
:101C900097F84F3007F10802134497F86420B96EA3
:101CA000184614F01DFB97F84F2097F86430134442
:101CB00087F84F3097F84F3050333B4497F86C20FB
:101CC00003F8482C97F84F30013387F84F3097F8D6
:101CD0004F3007F10802134497F86C20396F18460B
:101CE00014F0FEFA97F84F2097F86C30134487F8F9
:101CF0004F30B7F87430A7F8743097F84F3007F1C9
:101D000008021344B7F874201A8097F84F30023352
:101D100087F84F30B7F87830A7F8783097F84F3019
:101D200007F108021344B7F878201A8097F84F306B
:101D3000023387F84F3007F1340318220021184688
:101D400013F053FF3F23BB868323FB8607F1080371
:101D5000FB6397F84F303B6407F133037B64012347
:101D6000BB6407F1340300211846FFF7FBFB034671
:101D7000002B01DAFF2307E097F83330002B02D065
:101D800097F8333000E0002318465437BD4690BD25
:101D900080B58EB000AF3B600346FB710B46BB7154
:101DA00013467B71FB793B74BB797B74B7F8403089
:101DB000A7F81930B7F84430A7F81B307B79BB740B
:101DC0003A6807F113031168196092889A8007F145
:101DD000200318220021184613F007FF3F233B84FD
:101DE00084237B8407F11003BB620D23FB6207F1A0
:101DF0000F033B6301237B6307F120030021184697
:101E0000FFF7B0FB0346002B01DAFF2300E0FB7B6A
:101E100018463837BD4680BD80B58CB000AF03464C
:101E20003A60FB710B46BB71FB793B74BB797B74E9
:101E30003A6807F112031168196092889A8007F1D5
:101E4000180318220021184613F0CFFE3F233B83CE
:101E500084237B8307F110033B6208237B6207F135
:101E60000F03BB620123FB6207F118030021184630
:101E7000FFF778FB0346002B01DAFF2300E0FB7B32
:101E800018463037BD4680BD80B58AB000AF0346E6
:101E9000FB71FB793B7307F11003182200211846F0
:101EA00013F0A3FE3F233B8285237B8207F10C03C3
:101EB000BB610123FB6107F10F033B6201237B62DE
:101EC00007F1100300211846FFF74CFB0346002BD7
:101ED00001DAFF2300E0FB7B18462837BD4680BDB2
:101EE00090B591B000AF3A601A460346FB710B46BD
:101EF000BB7113467B71FB793B73BB797B733A688B
:101F000007F10E03146850689168D2681C6058602D
:101F10009960DA607B79BB7797F85030FB7797F858
:101F2000543087F82030BB6DC7F8213097F85C300B
:101F300087F8253007F1280318220021184613F0EE
:101F400054FE3F233B8586237B8507F10C033B63CF
:101F50001A237B6307F10B03BB630123FB6307F1C8
:101F6000280300211846FFF7FDFA0346002B01DA8B
:101F7000FF2305E0FB7A002B01D0FB7A00E0002371
:101F800018464437BD4690BD80B58AB000AF0346C1
:101F90000A46FB8013467B71FB88BB817B79BB7350
:101FA00007F1100318220021184613F01EFE3F23EC
:101FB0003B8287237B8207F10C03BB610323FB6118
:101FC00007F10B033B6201237B6207F11003002141
:101FD0001846FFF7C7FA0346002B01DAFF2300E09B
:101FE000FB7A18462837BD4680BD80B58CB000AF5F
:101FF00003463960FB80FB883B823B68C7F81230A0
:1020000007F1180318220021184613F0EEFD3F23B4
:102010003B8388237B8307F110033B6206237B62AB
:102020000F23FB6107F10F03BB620123FB6207F182
:10203000180300211846FFF795FA0346002B01DA32
:10204000FF2300E0FB7B18463037BD4680BD80B5DE
:102050008AB000AF03460A46FB8013467B71FB88BB
:10206000BB817B79BB7307F110031822002118464E
:1020700013F0BBFD3F233B8289237B8207F10C03D6
:10208000BB610323FB6107F10B033B6201237B620E
:1020900007F1100300211846FFF764FA0346002BEE
:1020A00001DAFF2300E0FB7A18462837BD4680BDE1
:1020B00080B58AB000AF03460A46FB711346BB7178
:1020C000FB793B73BB797B7307F110031822002166
:1020D000184613F08AFD3F233B828B237B8207F156
:1020E0000C03BB610223FB6107F10B033B6201237D
:1020F0007B6207F1100300211846FFF733FA03460D
:10210000002B01DAFF2300E0FB7A18462837BD4692
:1021100080BD80B58AB000AF0346FB71FB793B738D
:1021200007F1100318220021184613F05EFD3F232B
:102130003B828B237B8207F10C03BB610123FB6194
:1021400007F10B033B6201237B6207F110030021BF
:102150001846FFF707FA0346002B01DAFF2300E0D9
:10216000FB7A18462837BD4680BD80B58AB000AFDF
:1021700003460A46FB711346BB71FB797B73BB793F
:102180003B7307F1100318220021184613F02DFDB0
:102190003F233B828C237B8207F10C03BB6102232C
:1021A000FB6107F10B033B6201237B6207F1100324
:1021B00000211846FFF7D6F90346002B01DAFF236A
:1021C00000E0FB7A18462837BD4680BD80B58AB04E
:1021D00000AF0346FB800B467B7113463B71FB88C7
:1021E000BB817B79BB733B79FB7307F1100318222A
:1021F0000021184613F0F9FC3F233B828D237B829C
:1022000007F10C03BB610423FB610F237B6107F122
:102210000B033B6201237B6207F110030021184688
:10222000FFF7A0F90346002B01DAFF2300E0FB7A59
:1022300018462837BD4680BD80B592B000AF034632
:102240003960FB71002387F84730FB791F2B01D9D8
:1022500042233EE097F8473048333B44FA7903F88D
:10226000402C97F84730013387F8473097F84730CC
:1022700007F108021344FA793968184614F030F867
:1022800097F84720FB79134487F8473007F12C0370
:1022900018220021184613F0A8FC3F23BB858E238B
:1022A000FB8507F108037B6397F84730BB6307F1B1
:1022B0002B03FB6301233B6407F12C030021184629
:1022C000FFF750F90346002B01DAFF2301E097F8EE
:1022D0002B3018464837BD4680BD80B58AB000AF68
:1022E0000346FB71FB793B7307F1100318220021B1
:1022F000184613F07AFC3F233B828F237B8207F141
:102300000C03BB610123FB6107F10B033B6201235B
:102310007B6207F1100300211846FFF723F90346FB
:10232000002B01DAFF2300E0FB7A18462837BD4670
:1023300080BD80B58CB000AFF860B9607A603B605A
:1023400007F1100305220021184613F04EFC07F197
:10235000180318220021184613F047FC3F233B8343
:1023600090237B8307F11003BB620523FB6207F117
:10237000180300211846FFF7F5F80346002B01DA91
:10238000FF2311E03B7C002B01D03B7C0CE07A7CEE
:10239000FB681A70BA7CBB681A70FA7C7B681A708A
:1023A0003A7D3B681A703B7C18463037BD4680BD8D
:1023B00080B588B000AF07F1080318220021184645
:1023C00013F013FC3F233B8192237B81FB1DBB61F8
:1023D0000123FB6107F1080300211846FFF7C2F84B
:1023E0000346002B01DAFF2300E0FB791846203773
:1023F000BD4680BD80B58AB000AF03460A46FB806B
:1024000013467B71FB88BB817B79BB7307F110039B
:1024100018220021184613F0E8FB3F233B82932348
:102420007B8207F10C03BB610323FB610F237B61FC
:1024300007F10B033B6201237B6207F110030021CC
:102440001846FFF78FF80346002B01DAFF2300E060
:10245000FB7A18462837BD4680BD80B588B000AFEE
:1024600007F1080318220021184613F0BEFB3F2392
:102470003B8194237B81FB1DBB610123FB6107F141
:10248000080300211846FFF76DF80346002B01DA18
:10249000FF2300E0FB7918462037BD4680BD80B59C
:1024A0008AB000AF0346FB80FB88BB8107F11003B5
:1024B00018220021184613F098FB3F233B829523F6
:1024C0007B8207F10C03BB610223FB6107F10B0365
:1024D0003B6201237B6207F1100300211846FFF7DE
:1024E00041F80346002B01DAFF2300E0FB7A18468F
:1024F0002837BD4680BD80B588B000AF07F108031E
:1025000018220021184613F070FB3F233B819523CE
:102510007B81FB1DBB610123FB6107F108030021E7
:102520001846FFF71FF80346002B01DAFF2300E0EF
:10253000FB7918462037BD4680BD90B58DB000AF01
:102540000446084611461A462346FB800346BB80D4
:102550000B46FB701346BB70FB883B82BB887B82BB
:10256000FB783B75BB787B7507F1180318220021B7
:10257000184613F03AFB3F233B8396237B8307F1F6
:1025800010033B6206237B620F23FB6107F10F03FD
:10259000BB620123FB6207F1180300211846FEF716
:1025A000E1FF0346002B01DAFF2300E0FB7B184626
:1025B0003437BD4690BD90B58DB000AF0446084697
:1025C00011461A462346FB800346BB800B46FB7030
:1025D0001346BB70FB883B82BB887B82FB783B75D4
:1025E000BB787B7507F1180318220021184613F0F9
:1025F000FCFA3F233B8397237B8307F110033B6265
:1026000006237B620F23FB6107F10F03BB620123EB
:10261000FB6207F1180300211846FEF7A3FF0346EB
:10262000002B01DAFF2300E0FB7B18463437BD4660
:1026300090BD80B592B000AF7B600346FB810B4636
:10264000BB811346FB72FB893B83BB897B83FB7A8F
:102650003B777A6807F11D031168196092889A80A8
:1026600097F8503087F82330B7F85430BB84B7F868
:102670005830FB84B7F85C303B85B7F860307B8519
:10268000B7F86430BB85B7F86830FB8507F13003D5
:1026900018220021184613F0A8FA3F233B869823FE
:1026A0007B8607F11803BB631823FB630F237B634F
:1026B00007F117033B6401237B6407F1300300211A
:1026C0001846FEF74FFF0346002B01DAFF2300E018
:1026D000FB7D18464837BD4680BD90B5ABB000AF16
:1026E0000446084611461A462346FB800346BB8033
:1026F0000B46FB7013463B80002387F8A73097F802
:10270000CC201346DB009B1A672B01DD4223DDE062
:10271000FB88FB8097F8A73007F108021344FA887A
:102720001A8097F8A730023387F8A730BB88BB80A0
:1027300097F8A73007F108021344BA881A8097F86F
:10274000A730023387F8A73097F8A730A8333B4467
:10275000FA7803F8A02C97F8A730013387F8A73050
:102760003B883B8097F8A73007F1080213443A886A
:102770001A8097F8A730023387F8A730B7F8B83037
:10278000A7F8B83097F8A73007F108021344B7F854
:10279000B8201A8097F8A730023387F8A730B7F827
:1027A000BC30A7F8BC3097F8A73007F108021344F3
:1027B000B7F8BC201A8097F8A730023387F8A73003
:1027C000B7F8C030A7F8C03097F8A73007F1080273
:1027D0001344B7F8C0201A8097F8A730023387F85F
:1027E000A730B7F8C430A7F8C43097F8A73007F17E
:1027F00008021344B7F8C4201A8097F8A7300233B0
:1028000087F8A730B7F8C830A7F8C83097F8A730CE
:1028100007F108021344B7F8C8201A8097F8A730C8
:10282000023387F8A73097F8A730A8333B4497F8CE
:10283000CC2003F8A02C97F8A730013387F8A730F5
:1028400097F8A73007F10802D01897F8CC20134664
:10285000DB009B1A1A46D7F8D01013F041FD97F809
:10286000CC301A46D200D31ADAB297F8A730134404
:1028700087F8A73007F18C0318220021184613F0BF
:10288000B4F93F23A7F88C309923A7F88E3007F1CD
:102890000803C7F8943097F8A730C7F898300F238B
:1028A000C7F8903007F18B03C7F89C300123C7F8B5
:1028B000A03007F18C0300211846FEF753FE0346B3
:1028C000002B01DAFF2301E097F88B301846AC3774
:1028D000BD4690BD90B5ABB000AF0446084611466A
:1028E0001A462346FB800346BB800B46FB7013460B
:1028F0003B80002387F8A73097F8D4201346DB00ED
:102900009B1A672B01DD4223FAE0FB88FB8097F8D6
:10291000A73007F108021344FA881A8097F8A73005
:10292000023387F8A730BB88BB8097F8A73007F140
:1029300008021344BA881A8097F8A730023387F840
:10294000A73097F8A730A8333B44FA7803F8A02CB7
:1029500097F8A730013387F8A7303B883B8097F87A
:10296000A73007F1080213443A881A8097F8A73075
:10297000023387F8A730B7F8B830A7F8B83097F81F
:10298000A73007F108021344B7F8B8201A8097F867
:10299000A730023387F8A730B7F8BC30A7F8BC30AF
:1029A00097F8A73007F108021344B7F8BC201A8043
:1029B00097F8A730023387F8A730B7F8C030A7F8E8
:1029C000C03097F8A73007F108021344B7F8C020C9
:1029D0001A8097F8A730023387F8A730B7F8C430C9
:1029E000A7F8C43097F8A73007F108021344B7F8E6
:1029F000C4201A8097F8A730023387F8A730B7F8B9
:102A0000C830A7F8C83097F8A73007F10802134478
:102A1000B7F8C8201A8097F8A730023387F8A73094
:102A200097F8A730A8333B4497F8CC2003F8A02CA4
:102A300097F8A730013387F8A73097F8A73007F148
:102A4000080213440622D7F8D010184613F048FCA9
:102A500097F8A730063387F8A73097F8A730A83340
:102A60003B4497F8D42003F8A02C97F8A730013303
:102A700087F8A73097F8A73007F10802D01897F821
:102A8000D4201346DB009B1A1A46D7F8D81013F04F
:102A900027FC97F8D4301A46D200D31ADAB297F846
:102AA000A730134487F8A73007F18C0318220021C0
:102AB000184613F09AF83F23A7F88C309923A7F80B
:102AC0008E3007F10803C7F8943097F8A730C7F89D
:102AD00098300F23C7F8903007F18B03C7F89C306C
:102AE0000123C7F8A03007F18C0300211846FEF738
:102AF00039FD0346002B01DAFF2301E097F88B3004
:102B00001846AC37BD4690BD90B58DB000AF0446B9
:102B1000084611461A462346FB710346BB800B4606
:102B20007B801346BB71FB793B74BB88A7F81130DF
:102B30007B88A7F81330BB797B7597F84030BB755D
:102B400007F1180318220021184613F04EF83F230E
:102B50003B839A237B8307F110033B6207237B624D
:102B60000F23FB6107F10F03BB620123FB6207F137
:102B7000180300211846FEF7F5FC0346002B01DA86
:102B8000FF2300E0FB7B18463437BD4690BD90B56F
:102B90008FB000AF0446084611461A462346FB7123
:102BA0000346BB800B467B801346BB71FB793B74AD
:102BB000BB88A7F811307B88A7F81330BB797B75E9
:102BC00097F84830BB7597F84C30FB753A6D07F1B4
:102BD00018031068186092889A8007F12003182261
:102BE0000021184613F001F83F233B849A237B848D
:102BF00007F11003BB620E23FB620F237B6207F118
:102C00000F033B6301237B6307F120030021184678
:102C1000FEF7A8FC0346002B01DAFF2300E0FB7B54
:102C200018463C37BD4690BD90B5ABB000AF0446EA
:102C3000084611461A462346FB710346BB800B46E5
:102C40007B801346BB7197F8BC201346DB009B1AB0
:102C5000782B01DD42234CE0FB793B74BB88A7F85D
:102C600011307B88A7F81330BB797B7597F8B830A3
:102C7000BB7597F8BC30FB7597F8BC201346DB009A
:102C80009B1A1A4607F110030833D7F8C0101846EC
:102C900013F026FB07F1900318220021184612F0CA
:102CA000A4FF3F23A7F890309B23A7F8923007F1A9
:102CB0001003C7F8983097F8BC201346DB009B1A26
:102CC0000833C7F89C300F23C7F8943007F10F037F
:102CD000C7F8A0300123C7F8A43007F19003002102
:102CE0001846FEF73FFC0346002B01DAFF2300E005
:102CF000FB7B1846AC37BD4690BD80B592B000AFA7
:102D00007B600346FB810B46BB811346FB72FB894C
:102D10003B83BB897B83FB7A3B777A6807F11D0392
:102D20001168196092889A8097F8503087F823309C
:102D3000B7F85430BB84B7F85830FB84B7F85C3030
:102D40003B85B7F860307B85B7F86430BB85B7F852
:102D50006830FB8507F1300318220021184612F075
:102D600044FF3F233B869C237B8607F11803BB630C
:102D70001823FB630F237B6307F117033B640123D5
:102D80007B6407F1300300211846FEF7EBFB034696
:102D9000002B01DAFF2300E0FB7D18464837BD46D3
:102DA00080BD80B58AB000AF0346FB7107F1100308
:102DB00018220021184612F018FF3F233B829D2362
:102DC0007B82FB1DBB610123FB6107F10F033B62AB
:102DD00001237B6207F1100300211846FEF7C2FBB6
:102DE0000346002B01DAFF2300E0FB7B184628375F
:102DF000BD4680BD90B58FB000AF04460846114671
:102E00001A462346FB800346BB800B467B80134655
:102E10003B80FB883B82BB887B827B88BB823B8874
:102E2000FB82B7F848303B83B7F84C307B83B7F868
:102E30005030BB8307F1200318220021184612F0FE
:102E4000D4FE3F233B849E237B8407F11003BB62A7
:102E50000E23FB620F237B6207F10F033B63012309
:102E60007B6307F1200300211846FEF77BFB034636
:102E7000002B01DAFF2300E0FB7B18463C37BD4600
:102E800090BD80B58AB000AF03460A46FB8013466A
:102E90007B71FB88BB817B79BB7307F11003182220
:102EA0000021184612F0A1FE3F233B829F237B8224
:102EB00007F10C03BB610323FB610F237B6107F167
:102EC0000B033B6201237B6207F1100300211846CC
:102ED000FEF748FB0346002B01DAFF2300E0FB7AF4
:102EE00018462837BD4680BD80B58CB000AF7860ED
:102EF00039607A6807F110031068186092889A8028
:102F000007F1180318220021184612F06EFE3F2325
:102F10003B83A0237B8307F110033B6206237B6284
:102F200007F10803BB620723FB6207F118030021C6
:102F30001846FEF717FB0346002B01DAFF230DE0CE
:102F40003B7A002B01D03B7A08E03B681A4607F138
:102F50000903196811609B88938000231846303755
:102F6000BD4680BD80B58CB000AF78607A6807F14F
:102F700010031068186092889A8007F118031822CD
:102F80000021184612F031FE3F233B83A0237B83B0
:102F900007F110033B6206237B6207F10F03BB625C
:102FA0000123FB6207F1180300211846FEF7DAFA45
:102FB0000346002B01DAFF2300E0FB7B1846303785
:102FC000BD4680BD90B5ABB000AF04460846114683
:102FD0001A462346FB800346BB800B46FB70134614
:102FE000BB70002387F8A73097F8C0301A46D2008C
:102FF000D31ADAB297F8B8301344DBB2023387F849
:10300000A63097F8A6307A2B01D942236EE0FB88D0
:10301000BB81BB88FB81FB783B74BB787B7497F8E2
:10302000A730A8333B4497F8B82003F8962C97F8BC
:10303000A730013387F8A73097F8A73007F10C02C3
:103040000632134497F8B820D7F8BC10184613F08E
:1030500047F997F8A72097F8B830134487F8A730B6
:1030600097F8A730A8333B4497F8C02003F8962C74
:1030700097F8A730013387F8A73097F8A73007F102
:103080000C020632D01897F8C0201346DB009B1ABA
:103090001A46D7F8C41013F023F907F18C0318224D
:1030A0000021184612F0A1FD3F23A7F88C30A12380
:1030B000A7F88E3007F10C03C7F8943097F8A630C4
:1030C0000633C7F8983007F10B03C7F89C3001238B
:1030D000C7F8A03007F18C0300211846FEF742FA2A
:1030E0000346002B01DAFF2300E0FB7A1846AC37D9
:1030F000BD4690BD90B58DB000AF04460846114660
:103100001A462346FB800346BB800B46FB701346E2
:10311000BB70FB883B82BB887B82FB783B75BB78AE
:103120007B7597F84030BB7507F118031822002112
:10313000184612F05AFD3F233B83A2237B8307F1FD
:1031400010033B6207237B620F23FB6107F10F0330
:10315000BB620123FB6207F1180300211846FEF74A
:1031600001FA0346002B01DAFF2300E0FB7B18463F
:103170003437BD4690BD80B58CB000AF0346396092
:10318000FB71FB793B743A6807F111031168196010
:1031900092889A8007F1180318220021184612F02D
:1031A00024FD3F233B83A4237B8307F110033B6271
:1031B00007237B6207F10F03BB620123FB6207F168
:1031C000180300211846FEF7CDF90346002B01DA5B
:1031D000FF2300E0FB7B18463037BD4680BD80B53D
:1031E000AAB000AFF860B9601346FB7107F1900315
:1031F00018220021184612F0F8FC3F23A7F890305F
:10320000A323A7F8923007F11403C7F8A0307C235A
:10321000C7F8A43007F1900300211846FEF7A2F981
:103220000346002B01DAFF231CE03B7D002B01D07D
:103230003B7D17E07A7DFB681A70BB68002B10D0CD
:103240007B7D1A461346DB009A1AFB799342A8BF8E
:1032500013461A4607F1140302331946B86813F0EF
:103260003FF800231846A837BD4680BD80B588B01A
:1032700000AF07F1080318220021184612F0B5FC30
:103280003F233B8140F201137B81FB1DBB61012386
:10329000FB6107F1080300211846FEF763F90346B6
:1032A000002B01DAFF2300E0FB7918462037BD46EA
:1032B00080BD80B590B000AF396011461A46034614
:1032C000FB710B46BB7113467B71002387F83E30C0
:1032D00097F83E3040333B44FA7903F8342C97F8A2
:1032E0003E30013387F83E30FB79012B03D10223B6
:1032F00087F83F3002E0102387F83F3097F83E30E0
:1033000007F10C02134497F83F203968184612F071
:10331000E7FF97F83E2097F83F30134487F83E3098
:1033200097F83E3040333B44BA7903F8342C97F891
:103330003E30013387F83E3097F83E3040333B440F
:103340007A7903F8342C97F83E30013387F83E3011
:1033500007F1200303220021184612F046FC07F172
:10336000240318220021184612F03FFC3F23BB849F
:103370004FF48173FB8407F10C03FB6297F83E3036
:103380003B6307F120037B630323BB6307F1240343
:1033900000211846FEF7E6F80346002B01DAFF236A
:1033A0000CE097F82030002B02D097F8203005E091
:1033B000B7F821309AB2BB6C1A8000231846403708
:1033C000BD4680BD90B591B000AF04460846114699
:1033D0001A462346FB800346BB800B467B80134680
:1033E0007B70002387F83E30FB88FB80FB883B81A5
:1033F00097F83E30023387F83E30BB88BB8097F8A1
:103400003E3007F108021344BA881A8097F83E301C
:10341000023387F83E307B887B8097F83E3007F197
:10342000080213447A881A8097F83E30023387F8EE
:103430003E307B78012B03D1022387F83F3002E036
:10344000102387F83F3097F83E3040333B447A787A
:1034500003F8382C97F83E30013387F83E3097F860
:103460003E3007F10802134497F83F20396D1846A3
:1034700012F036FF97F83E2097F83F30134487F854
:103480003E3007F1200303220021184612F0ADFB65
:1034900007F1240318220021184612F0A6FB3F234F
:1034A000BB8440F20313FB8407F10803FB6297F827
:1034B0003E303B6307F120037B630323BB6307F1CB
:1034C000240300211846FEF74DF80346002B01DACD
:1034D000FF230CE097F82030002B02D097F8203023
:1034E00005E0B7F821309AB27B6D1A8000231846A8
:1034F0004437BD4690BD80B592B000AF3A601A46E1
:103500000346FB800B467B7113463B71002387F813
:103510004630FB88FB8097F8463007F10C021344D5
:10352000FA881A8097F84630023387F8463097F8C1
:10353000463048333B447A7903F83C2C97F84630C0
:10354000013387F846307B79012B03D1022387F8BA
:10355000473002E0102387F8473097F8463007F1EC
:103560000C02134497F847203968184612F0B8FE49
:1035700097F8462097F84730134487F8463097F875
:10358000463048333B443A7903F83C2C97F84630B0
:10359000013387F8463097F8463048333B4497F874
:1035A000502003F83C2C97F84630013387F846301A
:1035B00097F8463048333B4497F8542003F83C2CA6
:1035C00097F84630013387F8463097F8463048334D
:1035D0003B4497F8582003F83C2C97F846300133C9
:1035E00087F8463097F8463048333B4497F85C20DC
:1035F00003F83C2C97F84630013387F8463097F8AB
:10360000463048333B4497F8602003F83C2C97F849
:103610004630013387F8463007F1280303220021A2
:10362000184612F0E2FA07F12C031822002118467E
:1036300012F0DBFA3F23BB854FF48273FB8507F161
:103640000C037B6397F84630BB6307F12803FB63E9
:1036500003233B6407F12C0300211846FDF782FF8A
:103660000346002B01DAFF230CE097F82830002BEB
:1036700002D097F8283005E0B7F829309AB27B6E6F
:103680001A80002318464837BD4680BD80B5ACB0CF
:1036900000AF7B600346FB810B46BB811346FB7288
:1036A000002387F8AE30FB89FB8197F8AE3007F135
:1036B00010021344FA891A8097F8AE30023387F863
:1036C000AE30BB89BB8197F8AE3007F110021344CE
:1036D000BA891A8097F8AE30023387F8AE3097F87F
:1036E000AE30B0333B44FA7A03F8A02C97F8AE30F2
:1036F000013387F8AE30FB7A012B03D1022387F820
:10370000AF3002E0102387F8AF3097F8AE3007F102
:103710001002134497F8AF207968184612F0E0FDC4
:1037200097F8AE2097F8AF30134487F8AE3097F88B
:10373000AE30B0333B4497F8B82003F8A02C97F88C
:10374000AE30013387F8AE3097F8AE30B0333B443B
:1037500097F8BC2003F8A02C97F8AE30013387F817
:10376000AE3097F8BC2097F8AE3013447B2B01DDC8
:10377000422390E097F8AE3007F11002134497F817
:10378000BC20D7F8C010184612F0AAFD97F8AE205A
:1037900097F8BC30134487F8AE3097F8AE30B033AA
:1037A0003B4497F8C42003F8A02C97F8AE300133BF
:1037B00087F8AE3097F8AE30B0333B4497F8C82066
:1037C00003F8A02C97F8AE30013387F8AE3097F8A5
:1037D000AE30B0333B4497F8CC2003F8A02C97F8D8
:1037E000AE30013387F8AE3097F8AE30B0333B449B
:1037F00097F8D02003F8A02C97F8AE30013387F863
:10380000AE3097F8AE30B0333B4497F8D42003F88D
:10381000A02C97F8AE30013387F8AE3007F1900353
:1038200003220021184612F0E0F907F19403182250
:103830000021184612F0D9F93F23A7F8943040F23E
:103840000513A7F8963007F11003C7F89C3097F8D6
:10385000AE30C7F8A03007F19003C7F8A4300323B7
:10386000C7F8A83007F1940300211846FDF77AFE47
:103870000346002B01DAFF230DE097F89030002B70
:1038800002D097F8903006E0B7F891309AB2D7F8A6
:10389000D8301A8000231846B037BD4680BD90B599
:1038A000ABB000AF0446084611461A462346FB80DB
:1038B0000346BB800B46FB701346BB70002387F8A2
:1038C000A730BB787A2B01D9422374E0FB88FB80B8
:1038D00097F8A73007F108021344FA881A8097F87E
:1038E000A730023387F8A730BB88BB8097F8A73092
:1038F00007F108021344BA881A8097F8A7300233F8
:1039000087F8A73097F8A730A8333B44FA7803F834
:10391000A02C97F8A730013387F8A73097F8A73085
:10392000A8333B44BA7803F8A02C97F8A7300133AA
:1039300087F8A73097F8A73007F108021344BA7840
:10394000D7F8B810184612F0CBFC97F8A720BB7830
:10395000134487F8A73007F18C031822002118467A
:1039600012F043F93F23A7F88C304FF48373A7F884
:103970008E3007F10803C7F8943097F8A730C7F8DE
:10398000983007F18B03C7F89C300123C7F8A030AB
:1039900007F18C0300211846FDF7E4FD0346002BD8
:1039A00001DAFF2307E097F88B30002B02D097F85D
:1039B0008B3000E000231846AC37BD4690BD80B583
:1039C0008AB000AF03460A46FB801346BB80FB88E3
:1039D0003B81BB887B8107F1100318220021184628
:1039E00012F003F93F233B8240F207137B8207F179
:1039F0000803BB610423FB6107F10F033B62012352
:103A00007B6207F1100300211846FDF7ABFD03466A
:103A1000002B01DAFF2300E0FB7B18462837BD4668
:103A200080BD80B58AB000AF0346FB80FB88BB81B8
:103A300007F1100318220021184612F0D6F83F2390
:103A40003B824FF484737B8207F10C03BB6102233A
:103A5000FB6107F10F033B6201237B6207F1100357
:103A600000211846FDF77EFD0346002B01DAFF23F7
:103A700000E0FB7B18462837BD4680BD80B58AB084
:103A800000AF03460A46FB801346BB80FB883B81A0
:103A9000BB887B8107F1100318220021184612F021
:103AA000A4F83F233B8240F209137B8207F108030D
:103AB000BB610423FB6107F10F033B6201237B62BF
:103AC00007F1100300211846FDF74CFD0346002BBB
:103AD00001DAFF2300E0FB7B18462837BD4680BD96
:103AE00080B58AB000AF78607B68BB6007F11003D7
:103AF00018220021184612F078F83F233B824FF439
:103B000085737B8207F10803BB610423FB6107F126
:103B10000F033B6201237B6207F11003002118466B
:103B2000FDF720FD0346002B01DAFF2300E0FB7BBD
:103B300018462837BD4680BD80B58AB000AF034621
:103B4000FB80FB88BB8107F1100318220021184677
:103B500012F04BF83F233B8240F20B137B8207F1BC
:103B60000C03BB610223FB610F237B6107F10F0391
:103B70003B6201237B6207F1100300211846FDF729
:103B8000F1FC0346002B01DAFF2300E0FB7B184623
:103B90002837BD4680BD80B58AB000AF0346FB80A4
:103BA0000B46BB8013467B80FB883B81BB887B81B7
:103BB0007B88BB8107F1100318220021184612F000
:103BC00014F83F233B824FF486737B8207F108038E
:103BD000BB610623FB6107F10F033B6201237B629C
:103BE00007F1100300211846FDF7BCFC0346002B2B
:103BF00001DAFF2300E0FB7B18462837BD4680BD75
:103C000080B592B000AF7B600346FB810B46BB8161
:103C100013467B8197F85030102B01D942233AE0AC
:103C2000FB89BB82BB89FB827B893B837B681B88CA
:103C30009BB27B8397F850303B7797F8502007F181
:103C400014030933796D184612F04AFB07F130036B
:103C500018220021184611F0C8FF3F233B8640F28E
:103C60000D137B8607F11403BB6397F850300933BB
:103C7000FB6307F12F033B6401237B6407F13003EF
:103C800000211846FDF76EFC0346002B01DAFF23E6
:103C900001E097F82F3018464837BD4680BD90B5F3
:103CA00091B000AF0446084611461A462346FB80F1
:103CB0000346BB800B467B8013467B707B78012BD1
:103CC00003D1022387F83F3002E0102387F83F300A
:103CD000FB88BB81BB88FB817B883B827B78BB7484
:103CE00097F83F2007F10C030733396D184612F09F
:103CF000F7FA07F1240318220021184611F075FF86
:103D00003F23BB844FF48773FB8407F10C03FB62F2
:103D100097F83F3007333B6307F123037B630123AD
:103D2000BB6307F1240300211846FDF71BFC034683
:103D3000002B01DAFF2301E097F8233018464437BF
:103D4000BD4690BD90B591B000AF044608461146FF
:103D50001A462346FB800346BB800B467B801346F6
:103D60007B707B78012B03D1022387F83F3002E080
:103D7000102387F83F30FB88BB81BB88FB817B88A1
:103D80003B827B78BB7497F83F2007F10C03073325
:103D9000396D184612F0A4FA07F124031822002105
:103DA000184611F022FF3F23BB8440F20F13FB841F
:103DB00007F10C03FB6297F83F3007333B6307F1D1
:103DC00023037B630123BB6307F12403002118460F
:103DD000FDF7C8FB0346002B01DAFF2301E097F84B
:103DE000233018464437BD4690BD90B591B000AF22
:103DF0000446084611461A462346FB800346BB800C
:103E00000B467B8013467B707B78122B01D94223B3
:103E100033E0FB88BB81BB88FB817B883B827B785E
:103E2000BB747A7807F10C030733396D184612F02A
:103E300057FA07F1280318220021184611F0D5FE81
:103E40003F233B854FF488737B8507F10C033B636D
:103E50007B7807337B6307F12703BB630123FB6395
:103E600007F1280300211846FDF77CFB0346002BD1
:103E700001DAFF2301E097F8273018464437BD46A2
:103E800090BD80B58AB000AF03460A46FB8013465A
:103E90007B71FB88BB817B79BB7307F11003182210
:103EA0000021184611F0A1FE3F233B8240F211137E
:103EB0007B8207F10C03BB610323FB6107F10F0356
:103EC0003B6201237B6207F1100300211846FDF7D6
:103ED00049FB0346002B01DAFF2300E0FB7B184679
:103EE0002837BD4680BD80B58AB000AF0346FB8051
:103EF000FB88BB8107F1100318220021184611F03E
:103F000074FE3F233B824FF489737B8207F10C03DD
:103F1000BB610223FB610F237B6107F10F033B624F
:103F200001237B6207F1100300211846FDF71AFBFD
:103F30000346002B01DAFF2300E0FB7B18462837FD
:103F4000BD4680BD80B58EB000AF03463A60FB80B1
:103F50000B467B717B79012B03D1022387F8373025
:103F600002E0102387F83730FB883B817B79BB72F6
:103F700097F8372007F1080303333968184612F021
:103F8000AFF907F11C0318220021184611F02DFE8D
:103F90003F23BB8340F21313FB8307F108037B62CB
:103FA00097F837300333BB620F233B6207F11B03E3
:103FB000FB6201233B6307F11C0300211846FDF758
:103FC000D1FA0346002B01DAFF2300E0FB7E1846FE
:103FD0003837BD4680BD80B58AB000AF0346FB8050
:103FE0000B46BB8013467B80FB883B81BB887B8173
:103FF0007B88BB8107F1100318220021184611F0BD
:10400000F4FD3F233B824FF48A737B8207F1080360
:10401000BB610623FB610F237B6107F10F033B624A
:1040200001237B6207F1100300211846FDF79AFA7D
:104030000346002B01DAFF2300E0FB7B18462837FC
:10404000BD4680BD80B58AB000AF0346FB800B46FD
:10405000BB8013467B80FB883B81BB887B817B8850
:10406000BB8107F1100318220021184611F0BDFD95
:104070003F233B8240F215137B8207F10803BB61AB
:104080000623FB610F237B6107F10F033B620123D2
:104090007B6207F1100300211846FDF763FA03461F
:1040A000002B01DAFF2300E0FB7B18462837BD46D2
:1040B00080BD90B591B000AF0446084611461A463F
:1040C0002346FB800346BB800B467B8013467B70F8
:1040D000002387F83E30FB88FB8097F83E3007F1DD
:1040E0000C021344FA881A8097F83E30023387F89E
:1040F0003E30BB88BB8097F83E3007F10C0213447A
:10410000BA881A8097F83E30023387F83E307B88B1
:104110007B8097F83E3007F10C0213447A881A80AE
:1041200097F83E30023387F83E3097F83E30403300
:104130003B447A7803F8342C97F83E30013387F803
:104140003E307B78012B03D1022387F83F3002E019
:10415000102387F83F3097F83E3007F10C021344E4
:1041600097F83F20396D184612F0BAF897F83E20BC
:1041700097F83F30134487F83E3007F124031822A4
:104180000021184611F031FD3F23BB844FF48B739F
:10419000FB8407F10C03FB6297F83E303B630F236F
:1041A000BB6207F123037B630123BB6307F1240395
:1041B00000211846FDF7D6F90346002B01DAFF234C
:1041C00001E097F8233018464437BD4690BD80B5CE
:1041D0008AB000AF0346FB800B46BB8013467B8052
:1041E000FB883B81BB887B817B88BB8107F1100307
:1041F00018220021184611F0F8FC3F233B8240F2C0
:1042000017137B8207F10803BB610623FB610F23B1
:104210007B6107F10F033B6201237B6207F110030F
:1042200000211846FDF79EF90346002B01DAFF2313
:1042300000E0FB7B18462837BD4680BD80B58AB0BC
:1042400000AF03460A46FB801346BB80FB883B81D8
:10425000BB887B8107F1100318220021184611F05A
:10426000C4FC3F233B824FF48C737B8207F108032D
:10427000BB610423FB610F237B6107F10F033B62EA
:1042800001237B6207F1100300211846FDF76AF94C
:104290000346002B01DAFF2300E0FB7B184628379A
:1042A000BD4680BD90B591B000AF044608461146AA
:1042B0001A462346FB800346BB800B467B80134691
:1042C0007B707B78012B03D1022387F83F3002E01B
:1042D000102387F83F30FB88BB81BB88FB817B883C
:1042E0003B827B78BB7497F83F2007F10C030733C0
:1042F000396D184611F0F4FF07F12403182200214C
:10430000184611F072FC3F23BB8440F20913FB8472
:1043100007F10C03FB6297F83F3007333B6307F16B
:1043200023037B630123BB6307F1240300211846A9
:10433000FDF718F90346002B01DAFF2301E097F897
:10434000233018464437BD4690BD80B58AB000AFD3
:104350000346FB800B46BB8013467B80FB883B817A
:10436000BB887B817B88BB8107F110031822002169
:10437000184611F03AFC3F233B824FF48D737B8249
:1043800007F10803BB610623FB610F237B6107F183
:104390000F033B6201237B6207F1100300211846E3
:1043A000FDF7E0F80346002B01DAFF2300E0FB7B7A
:1043B00018462837BD4680BD80B5AAB000AF034679
:1043C0003A60FB800B467B717B795B007D2B01D9CA
:1043D00042233BE0FB88BB817B79BB737B795B002D
:1043E0001A4607F10C0303333968184611F078FFB9
:1043F00007F1900318220021184611F0F6FB3F2325
:10440000A7F8903040F21B13A7F8923007F10C0385
:10441000C7F898307B795B000333C7F89C300F23D3
:10442000C7F8943007F18F03C7F8A0300123C7F80D
:10443000A43007F1900300211846FDF793F80346D6
:10444000002B01DAFF2301E097F88F301846A837D8
:10445000BD4680BD80B5ACB000AF7B600346FB813C
:104460000B46BB811346FB72002387F8AF30FB7A03
:104470007B2B01D9422364E0FB89FB8197F8AF30A5
:1044800007F110021344FA891A8097F8AF3002330B
:1044900087F8AF30BB89BB8197F8AF3007F11002C6
:1044A0001344BA891A8097F8AF30023387F8AF30D7
:1044B00097F8AF30B0333B44FA7A03F8A02C97F862
:1044C000AF30013387F8AF3097F8AF3007F1100203
:1044D0001344FA7A7968184611F002FF97F8AF2072
:1044E000FB7A134487F8AF3007F1940318220021B8
:1044F000184611F07AFB3F23A7F894304FF48E73DF
:10450000A7F8963007F11003C7F89C3097F8AF3042
:10451000C7F8A0300F23C7F8983007F19303C7F806
:10452000A4300123C7F8A83007F1940300211846EE
:10453000FDF718F80346002B01DAFF2301E097F896
:1045400093301846B037BD4680BD90B5ABB000AFD4
:104550000446084611461A462346FB800346BB80A4
:104560000B467B8013467B707B78792B01D94223E5
:104570003DE0FB88BB81BB88FB817B883B827B78ED
:10458000BB747A7807F10C030733D7F8B8101846D4
:1045900011F0A6FE07F1900318220021184611F031
:1045A00024FB3F23A7F8903040F21D13A7F8923068
:1045B00007F10C03C7F898307B780733C7F89C30B5
:1045C0000F23C7F8943007F18F03C7F8A0300123F9
:1045D000C7F8A43007F1900300211846FCF7C2FF8A
:1045E0000346002B01DAFF2301E097F88F301846CD
:1045F000AC37BD4690BD90B5ABB000AF04460846A1
:1046000011461A462346FB800346BB800B467B803F
:1046100013467B707B78792B01D942233DE0FB88E0
:10462000BB81BB88FB817B883B827B78BB747A78BB
:1046300007F10C030733D7F8B810184611F050FEF5
:1046400007F1900318220021184611F0CEFA3F23FB
:10465000A7F890304FF48F73A7F8923007F10C034E
:10466000C7F898307B780733C7F89C300F23C7F81A
:10467000943007F18F03C7F8A0300123C7F8A430A6
:1046800007F1900300211846FCF76CFF0346002B4E
:1046900001DAFF2301E097F88F301846AC37BD46AA
:1046A00090BD90B5ABB000AF0446084611461A461F
:1046B0002346FB800346BB800B467B8013467B7002
:1046C0007B78792B01D942233DE0FB88BB81BB88F5
:1046D000FB817B883B827B78BB747A7807F10C0383
:1046E0000733D7F8B810184611F0FAFD07F1900318
:1046F00018220021184611F078FA3F23A7F89030CD
:1047000040F21F13A7F8923007F10C03C7F8983056
:104710007B780733C7F89C300F23C7F8943007F134
:104720008F03C7F8A0300123C7F8A43007F1900326
:1047300000211846FCF716FF0346002B01DAFF2381
:1047400001E097F88F301846AC37BD4690BD80B574
:104750008AB000AF0346FB800B46BB8013467B80CC
:10476000FB883B81BB887B817B88BB8107F1100381
:1047700018220021184611F038FA3F233B824FF4EB
:1047800090737B8207F10803BB610623FB610F2353
:104790007B6107F10F033B6201237B6207F110038A
:1047A00000211846FCF7DEFE0346002B01DAFF234A
:1047B00000E0FB7B18462837BD4680BD80B5ACB015
:1047C00000AF7B600346FB810B46BB811346FB7247
:1047D000002387F8AF30FB7A7B2B01D9422364E0BA
:1047E000FB89FB8197F8AF3007F110021344FA8977
:1047F0001A8097F8AF30023387F8AF30BB89BB819E
:1048000097F8AF3007F110021344BA891A8097F86D
:10481000AF30023387F8AF3097F8AF30B0333B4456
:10482000FA7A03F8A02C97F8AF30013387F8AF304D
:1048300097F8AF3007F110021344FA7A79681846F6
:1048400011F04EFD97F8AF20FB7A134487F8AF3094
:1048500007F1940318220021184611F0C6F93F23EE
:10486000A7F8943040F22113A7F8963007F110030F
:10487000C7F89C3097F8AF30C7F8A0300F23C7F8BF
:10488000983007F19303C7F8A4300123C7F8A83084
:1048900007F1940300211846FCF764FE0346002B41
:1048A00001DAFF2301E097F893301846B037BD4690
:1048B00080BD80B58AB000AF03460A46FB80134630
:1048C000BB80FB883B81BB887B8107F110031822EA
:1048D0000021184611F089F93F233B824FF4917370
:1048E0007B8207F10803BB610423FB610F237B611B
:1048F00007F10F033B6201237B6207F110030021E4
:104900001846FCF72FFE0346002B01DAFF2300E0D8
:10491000FB7B18462837BD4680BD80B592B000AFFE
:104920007B600346FB810B46BB811346FB72FB7A1F
:10493000142B01D9422331E0FB89BB82BB89FB8266
:10494000FB7A3B76FA7A07F1140305337968184647
:1049500011F0C6FC07F1300318220021184611F0AF
:1049600044F93F233B8640F223137B8607F114036F
:10497000BB63FB7A0533FB6307F12F033B64012321
:104980007B6407F1300300211846FCF7EBFD03467A
:10499000002B01DAFF2301E097F82F301846483743
:1049A000BD4680BD80B58EB000AF7B600346FB8105
:1049B0000B46BB811346FB72FB7A0A2B01D94223BB
:1049C00030E0FB893B82BB897B82FB7A3B75FA7ABC
:1049D00007F1100305337968184611F081FC07F1DF
:1049E000200318220021184611F0FFF83F233B84D2
:1049F0004FF492737B8407F11003BB62FB7A05339B
:104A0000FB6207F11F033B6301237B6307F1200374
:104A100000211846FCF7A6FD0346002B01DAFF2310
:104A200000E0FB7F18463837BD4680BD80B58AB0B0
:104A300000AF0346FB80FB88BB8107F110031822FF
:104A40000021184611F0D1F83F233B8240F2251394
:104A50007B8207F10C03BB610223FB6107F10F03AB
:104A60003B6201237B6207F1100300211846FCF72B
:104A700079FD0346002B01DAFF2300E0FB7B18469B
:104A80002837BD4680BD90B5ABB000AF04460846A0
:104A900011461A462346FB800346BB800B46FB703B
:104AA0001346BB70002387F8A73097F8B830792BEE
:104AB00001D9422383E0FB88FB8097F8A73007F1F8
:104AC00008021344FA881A8097F8A730023387F84F
:104AD000A730BB88BB8097F8A73007F108021344C2
:104AE000BA881A8097F8A730023387F8A73097F86A
:104AF000A730A8333B44FA7803F8A02C97F8A730E6
:104B0000013387F8A73097F8A730A8333B44BA7829
:104B100003F8A02C97F8A730013387F8A73097F84F
:104B2000A730A8333B4497F8B82003F8A02C97F897
:104B3000A730013387F8A73097F8A73007F10802AC
:104B4000134497F8B820D7F8BC10184611F0C8FBEA
:104B500097F8A72097F8B830134487F8A73007F1E3
:104B60008C0318220021184611F03FF83F23A7F8C4
:104B70008C304FF49373A7F88E3007F10803C7F811
:104B8000943097F8A730C7F8983007F18B03C7F82F
:104B90009C300123C7F8A03007F18C030021184690
:104BA000FCF7E0FC0346002B01DAFF2307E097F84F
:104BB0008B30002B02D097F88B3000E00023184692
:104BC000AC37BD4690BD80B58AB000AF0346FB80D0
:104BD000FB88BB8107F1100318220021184611F051
:104BE00004F83F233B8240F227137B8207F10C033A
:104BF000BB610223FB6107F10B033B6201237B6274
:104C000007F1100300211846FCF7ACFC0346002B0B
:104C100001DAFF2300E0FB7A18462837BD4680BD45
:104C200080B58CB000AF0346FB800B46BB801346BB
:104C3000FB70FB883B82BB887B82FB783B7507F16E
:104C4000180318220021184610F0CFFF3F233B83A2
:104C50004FF494737B8307F110033B6205237B625F
:104C600007F10F03BB620123FB6207F11803002168
:104C70001846FCF777FC0346002B01DAFF2300E01F
:104C8000FB7B18463037BD4680BD90B5ABB000AF5A
:104C90000446084611461A462346FB800346BB805D
:104CA0000B467B8013463B80002387F8A73097F89C
:104CB000B830772B01D942237FE0FB88FB8097F83F
:104CC000A73007F108021344FA881A8097F8A73032
:104CD000023387F8A730BB88BB8097F8A73007F16D
:104CE00008021344BA881A8097F8A730023387F86D
:104CF000A7307B887B8097F8A73007F10802134420
:104D00007A881A8097F8A730023387F8A73097F887
:104D1000A73007F1080213443A881A8097F8A730A1
:104D2000023387F8A73097F8A730A8333B4497F8A9
:104D3000B82003F8A02C97F8A730013387F8A730E4
:104D400097F8A73007F10802134497F8B820D7F86E
:104D5000BC10184611F0C4FA97F8A72097F8B8309D
:104D6000134487F8A73007F18C0318220021184656
:104D700010F03BFF3F23A7F88C3040F22913A7F82F
:104D80008E3007F10803C7F8943097F8A730C7F8BA
:104D9000983007F18B03C7F89C300123C7F8A03087
:104DA00007F18C0300211846FCF7DCFB0346002BBF
:104DB00001DAFF2301E097F88B301846AC37BD4687
:104DC00090BD80B5ACB000AFBA607B600346FB819C
:104DD0000B46BB81BB897D2B01D9422343E0FB8974
:104DE000A7F8943007F1980318220021184610F014
:104DF000FCFE3F23A7F898304FF49573A7F89A303C
:104E000007F19403C7F8A0300223C7F8A43007F1D4
:104E10001403C7F8A8308023C7F8AC3007F1980313
:104E200000211846FCF79EFB0346002B01DAFF2306
:104E300019E03B7D002B01D03B7D14E0B7F8153025
:104E40009AB2BB681A80BB681B88BA89934228BF94
:104E500013469BB21A4607F11403033319467868C8
:104E600011F03EFA00231846B037BD4680BD80B52C
:104E7000ACB000AF7B600346FB810B467B731346EF
:104E80007B817B897E2B01D9422346E0FB89A7F8F1
:104E900094307B7B87F8963007F198031822002125
:104EA000184610F0A2FE3F23A7F8983040F22B13CB
:104EB000A7F89A3007F19403C7F8A0300323C7F886
:104EC000A43007F11403C7F8A8308023C7F8AC302A
:104ED00007F1980300211846FCF744FB0346002B1A
:104EE00001DAFF2319E03B7D002B01D03B7D14E06C
:104EF0007B7D1A467B681A807B681B887A8993427F
:104F000028BF13469BB21A4607F114030233194611
:104F1000D7F8B80011F0E4F900231846B037BD46C1
:104F200080BD90B5ABB000AF0446084611461A46A6
:104F30002346FB800346BB800B46FB7013463B8039
:104F400097F8BC30762B01D9422344E0FB88BB8123
:104F5000BB88FB81FB783B743B88A7F81130B7F81E
:104F6000B830A7F8133097F8BC307B7597F8BC20A1
:104F700007F10C030A33D7F8C010184611F0B0F946
:104F800007F1900318220021184610F02EFE3F234F
:104F9000A7F890304FF49673A7F8923007F10C03FE
:104FA000C7F8983097F8BC300A33C7F89C3007F13F
:104FB0008F03C7F8A0300123C7F8A43007F190038E
:104FC00000211846FCF7CEFA0346002B01DAFF2336
:104FD00001E097F88F301846AC37BD4690BD80B5DC
:104FE0008AB000AF786007F110031822002118463C
:104FF00010F0FBFD3F233B8200237B8207F10C0373
:105000003B6203237B6207F1100300211846FCF783
:10501000A9FA0346002B01DAFF230AE03B7B002BB1
:1050200001D03B7B05E0B7F80D309AB27B681A805F
:10503000002318462837BD4680BD80B5AAB000AF12
:1050400003463A60FB710B46BB71002387F8A7301B
:10505000BB797E2B01D9422350E097F8A730A833C3
:105060003B44FA7903F8A02C97F8A730013387F86E
:10507000A73097F8A730A8333B44BA7903F8A02C9F
:1050800097F8A730013387F8A73097F8A73007F1D2
:1050900008021344BA793968184611F021F997F8D3
:1050A000A720BB79134487F8A73007F18C03182297
:1050B0000021184610F099FD3F23A7F88C300C23EF
:1050C000A7F88E3007F10803C7F8943097F8A73097
:1050D000C7F8983007F18B03C7F89C300123C7F855
:1050E000A03007F18C0300211846FCF73BFA034679
:1050F000002B01DAFF2301E097F88B301846A83720
:10510000BD4680BD80B5ACB000AFBA607B600346E1
:10511000FB730B46BB81FB7B87F8943007F1980348
:1051200018220021184610F060FD3F23A7F89830A0
:105130000D23A7F89A3007F19403C7F8A030012394
:10514000C7F8A43007F11403C7F8A8308023C7F8C4
:10515000AC3007F1980300211846FCF703FA034628
:10516000002B01DAFF231EE03B7D002B01D03B7DAD
:1051700019E0D7F8AC30DBB2013BDAB2BB681A7089
:10518000BB681B781A46BB89934201D2BA8902E0F8
:10519000BB681B781A4607F1140301331946786877
:1051A00011F09EF800231846B037BD4680BD80B58B
:1051B0008AB000AF03460A46FB711346BB71FB7908
:1051C0003B73BB797B7307F110031822002118464B
:1051D00010F00BFD3F233B820F237B8207F10C0372
:1051E000BB610223FB6107F10B033B6201237B627E
:1051F00007F1100300211846FCF7B4F90346002B11
:1052000001DAFF2300E0FB7A18462837BD4680BD4F
:1052100080B58AB000AF786007F110031822002132
:10522000184610F0E2FC3F233B8214237B8207F1F7
:1052300008033B6205237B6207F110030021184637
:10524000FCF790F90346002B01DAFF2309E03B7AD3
:10525000002B01D03B7A04E0D7F809207B681A6064
:10526000002318462837BD4680BD80B588B000AF02
:1052700007F1080318220021184610F0B6FC3F235E
:105280003B8113237B81FB1DBB610123FB6107F184
:10529000080300211846FCF765F90346002B01DAE4
:1052A000FF2300E0FB7918462037BD4680BD80B55E
:1052B0008AB000AF0346FB71FB793B7307F1100323
:1052C00018220021184610F090FC3F233B82152342
:1052D0007B8207F10C03BB610123FB6107F10B0328
:1052E0003B6201237B6207F1100300211846FCF7A3
:1052F00039F90346002B01DAFF2300E0FB7A184658
:105300002837BD4680BD80B588B000AF07F10803DF
:1053100018220021184610F068FC3F233B81162319
:105320007B81FB1DBB610123FB6107F108030021A9
:105330001846FCF717F90346002B01DAFF2300E0BB
:10534000FB7918462037BD4680BD80B590B000AFD0
:105350007860396007F1240318220021184610F004
:1053600044FC3F23BB841723FB8407F108037B63C2
:105370001923BB6307F1240300211846FCF7F2F858
:105380000346002B01DAFF2323E03B7A002B01D0F8
:105390003B7A1EE07B681A4607F1090319685B68CF
:1053A000116053600023FB630FE0FB6B5B003A6806
:1053B0001A44FB6B04335B0040333B4433F8373C07
:1053C0009BB21380FB6B0133FB63FB6B072BECDDA4
:1053D000002318464037BD4680BD80B58CB000AF75
:1053E0007860396007F1180318220021184610F080
:1053F000FCFB3F233B8319237B8307F10C03BB6238
:105400000923FB6207F1180300211846FCF7AAF8EC
:105410000346002B01DAFF230DE03B7B002B01D07C
:105420003B7B08E0D7F80D207B681A60D7F8112085
:105430003B681A60002318463037BD4680BD90B5E2
:1054400089B002AF7860396007F1100407F11502E6
:1054500007F1120107F1160007F10E03009323462E
:10546000FBF7ACF80346FB75FB7D002B26D17B8A4E
:105470001B0A9BB2DAB27B681A707B8A1B029AB253
:105480003B681A803B681B881AB2FB891B099BB2D8
:105490001B011BB2DBB21BB213431BB29AB23B68B7
:1054A0001A803B681B881AB2FB891BB203F00F03FA
:1054B0001BB213431BB29AB23B681A80FB7D18469D
:1054C0001C37BD4690BD000080B500AF0E4B1B6879
:1054D0000D4A43F4007313600B4B1B680A4A43F4F4
:1054E00080631360084B1B68074A43F480731360A2
:1054F000032000F099FB002000F042F80DF0A8FD19
:105500000023184680BD00BF003C024080B500AFBC
:10551000134B4FF0FF321A62114B00221A62104BEC
:105520004FF0FF325A620E4B00225A620C4B4FF082
:10553000FF321A610A4B00221A61094B4FF0FF3209
:105540005A61074B00225A61054B4FF0FF329A61B6
:10555000034B00229A6100F00CF80023184680BD2E
:105560000038024080B400AF00BFBD465DF8047B48
:10557000704780B400AF00BFBD465DF8047B704744
:1055800080B582B000AF7860124B1A68124B1B785E
:1055900019464FF47A73B3FBF1F3B2FBF3F31846F9
:1055A00000F08BFB0346002B01D001230EE07B684B
:1055B0000F2B0AD8002279684FF0FF3000F03FFB34
:1055C000064A7B681360002300E001231846083771
:1055D000BD4680BD0800002004000020000000201F
:1055E00080B400AF064B1B781A46064B1B68134469
:1055F000044A136000BFBD465DF8047B704700BFDE
:10560000040000205406002080B400AF034B1B6848
:105610001846BD465DF8047B704700BF5406002065
:1056200080B400AF034B1B681846BD465DF8047B91
:10563000704700BF0000002080B584B000AF034673
:10564000FB710023FB730A4B1B78FA799A4209D04D
:10565000074AFB791370074B1B681846FFF790FF4A
:105660000346FB73FB7B18461037BD4680BD00BF69
:10567000040000200000002080B400AF034B1B7822
:105680001846BD465DF8047B704700BF040000204B
:1056900080B584B000AF7860FFF7B6FFB8607B6874
:1056A000FB60FB68B3F1FF3F05D00A4B1B781A463D
:1056B000FB681344FB6000BFFFF7A6FF0246BB6810
:1056C000D31AFA689A42F7D800BF00BF1037BD4618
:1056D00080BD00BF0400002080B400AF054B1B68F4
:1056E000044A23F00203136000BFBD465DF8047B4B
:1056F000704700BF10E000E080B400AF054B1B68AE
:10570000044A43F00203136000BFBD465DF8047B0A
:10571000704700BF10E000E080B400AF024B1846B5
:10572000BD465DF8047B70470006070180B400AFFA
:10573000034B1B681B0C1846BD465DF8047B704785
:10574000002004E080B400AF044B1B68C3F30B03DC
:105750001846BD465DF8047B704700BF002004E09A
:1057600080B400AF054B5B68044A43F0010353600B
:1057700000BFBD465DF8047B704700BF002004E019
:1057800080B400AF054B5B68044A23F0010353600B
:1057900000BFBD465DF8047B704700BF002004E0F9
:1057A00080B400AF054B5B68044A43F002035360CA
:1057B00000BFBD465DF8047B704700BF002004E0D9
:1057C00080B400AF054B5B68044A23F002035360CA
:1057D00000BFBD465DF8047B704700BF002004E0B9
:1057E00080B400AF054B5B68044A43F00403536088
:1057F00000BFBD465DF8047B704700BF002004E099
:1058000080B400AF054B5B68044A23F00403536087
:1058100000BFBD465DF8047B704700BF002004E078
:1058200080B400AF034B01221A6000BFBD465DF893
:10583000047B70470004274280B400AF034B002272
:105840001A6000BFBD465DF8047B70470004274224
:1058500080B400AF034B1B681846BD465DF8047B5F
:10586000704700BF107AFF1F80B400AF034B1B6866
:105870001846BD465DF8047B704700BF147AFF1FD1
:1058800080B400AF034B1B681846BD465DF8047B2F
:10589000704700BF187AFF1F80B485B000AF7860F2
:1058A0007B6803F00703FB600C4BDB68BB60BA68E6
:1058B0004FF6FF031340BB60FB681A02BB6813433B
:1058C00043F0BF6343F40033BB60044ABB68D3605A
:1058D00000BF1437BD465DF8047B704700ED00E063
:1058E00080B400AF044BDB681B0A03F007031846C3
:1058F000BD465DF8047B704700ED00E080B483B0E6
:1059000000AF0346FB71FB7903F01F02074997F9CB
:1059100007305B09012000FA02F241F8232000BFA2
:105920000C37BD465DF8047B704700BF00E100E026
:1059300080B483B000AF0346FB71FB7903F01F0214
:10594000074997F907305B09012000FA02F220337A
:1059500041F8232000BF0C37BD465DF8047B70473B
:1059600000E100E080B483B000AF0346FB710A4A57
:1059700097F907305B09403352F82320FB7903F095
:105980001F0322FA03F303F0010318460C37BD4648
:105990005DF8047B704700BF00E100E080B483B095
:1059A00000AF0346FB71FB7903F01F02074997F92B
:1059B00007305B09012000FA02F2403341F823204E
:1059C00000BF0C37BD465DF8047B704700E100E086
:1059D00080B483B000AF0346FB71FB7903F01F0274
:1059E000074997F907305B09012000FA02F260339A
:1059F00041F8232000BF0C37BD465DF8047B70479B
:105A000000E100E080B483B000AF0346FB710A4AB6
:105A100097F907305B09803352F82320FB7903F0B4
:105A20001F0322FA03F303F0010318460C37BD46A7
:105A30005DF8047B704700BF00E100E080B483B0F4
:105A400000AF03463960FB7197F90730002B0BDA82
:105A50003B68DAB20C49FB7903F00F03043B1201F7
:105A6000D2B20B441A7609E03B68DAB2074997F9DB
:105A700007301201D2B20B4483F8002300BF0C3769
:105A8000BD465DF8047B704700ED00E000E100E0FA
:105A900080B483B000AF0346FB7197F90730002B49
:105AA0000ADA0D4AFB7903F00F03043B13441B7E13
:105AB000DBB21B09DBB208E0084A97F90730134450
:105AC00093F80033DBB21B09DBB218460C37BD4636
:105AD0005DF8047B704700BF00ED00E000E100E0EE
